{
  "transactions": [
    {
      "hash": "0x1953a4dc21eb2d5321220fc28fb50f04d6fbf1fd8d15c8acaacf7a573f8c2070",
      "transactionType": "CALL",
      "contractName": null,
      "contractAddress": "0x8a0c939571ef36363a5b4526a28ac59f623ebf97",
      "function": "mint(address,uint256)",
      "arguments": [
        "0x091E1C4c0c4e184D90117Cb51436D4d661f138A3",
        "100000000000000000000"
      ],
      "transaction": {
        "from": "0x5ce6047a715b1919a58c549e6fbc1921b4d9287d",
        "to": "0x8a0c939571ef36363a5b4526a28ac59f623ebf97",
        "gas": "0x173ef",
        "value": "0x0",
        "input": "0x40c10f19000000000000000000000000091e1c4c0c4e184d90117cb51436d4d661f138a30000000000000000000000000000000000000000000000056bc75e2d63100000",
        "nonce": "0x1ac",
        "chainId": "0xaa36a7"
      },
      "additionalContracts": [],
      "isFixedGasLimit": false
    }
  ],
  "receipts": [
    {
      "status": "0x1",
      "cumulativeGasUsed": "0xb9f602",
      "logs": [
        {
          "address": "0x8a0c939571ef36363a5b4526a28ac59f623ebf97",
          "topics": [
            "0xddf252ad1be2c89b69c2b068fc378daa952ba7f163c4a11628f55a4df523b3ef",
            "0x0000000000000000000000000000000000000000000000000000000000000000",
            "0x000000000000000000000000091e1c4c0c4e184d90117cb51436d4d661f138a3"
          ],
          "data": "0x0000000000000000000000000000000000000000000000056bc75e2d63100000",
          "blockHash": "0xcfb6ff593d7be2c4dde91acf0d4d973cca1c7ae02c43cfecc525683a6e1038ea",
          "blockNumber": "0x90ac19",
          "blockTimestamp": "0x68fba70c",
          "transactionHash": "0x1953a4dc21eb2d5321220fc28fb50f04d6fbf1fd8d15c8acaacf7a573f8c2070",
          "transactionIndex": "0x33",
          "logIndex": "0x5f",
          "removed": false
        }
      ],
      "logsBloom": "0x00000000000000000000000000000000000000000000100000000000000000000000000000000000000000100000000000000000000000000000000000000000000000000000000000000008000000000000000000000000000000000000000000000000020000000000000000000800000000000000000000000010000000000000000000010000000000000000000000000000000000000000000000100000000000000000000000000000000000000000000000000010000000000000000000000002000000000000000000000000000000000000000000000000000020000000000040000000000000000000000000000000000000000000000000000000",
      "type": "0x2",
      "transactionHash": "0x1953a4dc21eb2d5321220fc28fb50f04d6fbf1fd8d15c8acaacf7a573f8c2070",
      "transactionIndex": "0x33",
      "blockHash": "0xcfb6ff593d7be2c4dde91acf0d4d973cca1c7ae02c43cfecc525683a6e1038ea",
      "blockNumber": "0x90ac19",
      "gasUsed": "0x10d47",
      "effectiveGasPrice": "0xf4249",
      "from": "0x5ce6047a715b1919a58c549e6fbc1921b4d9287d",
      "to": "0x8a0c939571ef36363a5b4526a28ac59f623ebf97",
      "contractAddress": null
    }
  ],
  "libraries": [],
  "pending": [],
  "returns": {},
  "timestamp": 1761322765,
  "chain": 11155111,
  "commit": "3caefd0"
}