{
  "transactions": [
    {
      "hash": "0x5f539b42a2105515573efb033e7b1543d3d865dd6a6c81892320fe831343754c",
      "transactionType": "CALL",
      "contractName": null,
      "contractAddress": "0x8a0c939571ef36363a5b4526a28ac59f623ebf97",
      "function": "mint(address,uint256)",
      "arguments": [
        "0xF16bD86AC718886F0550689A574D4552dEC0253E",
        "100000000000000000000"
      ],
      "transaction": {
        "from": "0x5ce6047a715b1919a58c549e6fbc1921b4d9287d",
        "to": "0x8a0c939571ef36363a5b4526a28ac59f623ebf97",
        "gas": "0x12820",
        "value": "0x0",
        "input": "0x40c10f19000000000000000000000000f16bd86ac718886f0550689a574d4552dec0253e0000000000000000000000000000000000000000000000056bc75e2d63100000",
        "nonce": "0x1b1",
        "chainId": "0xaa36a7"
      },
      "additionalContracts": [],
      "isFixedGasLimit": false
    }
  ],
  "receipts": [
    {
      "status": "0x1",
      "cumulativeGasUsed": "0x153a490",
      "logs": [
        {
          "address": "0x8a0c939571ef36363a5b4526a28ac59f623ebf97",
          "topics": [
            "0xddf252ad1be2c89b69c2b068fc378daa952ba7f163c4a11628f55a4df523b3ef",
            "0x0000000000000000000000000000000000000000000000000000000000000000",
            "0x000000000000000000000000f16bd86ac718886f0550689a574d4552dec0253e"
          ],
          "data": "0x0000000000000000000000000000000000000000000000056bc75e2d63100000",
          "blockHash": "0x044c0a3b6e621aa5ec7b38d6e6c9d3e96ae4a77b05b1e5a5e325aec2bea56a31",
          "blockNumber": "0x90ae37",
          "blockTimestamp": "0x68fbc074",
          "transactionHash": "0x5f539b42a2105515573efb033e7b1543d3d865dd6a6c81892320fe831343754c",
          "transactionIndex": "0x2f",
          "logIndex": "0x399",
          "removed": false
        }
      ],
      "logsBloom": "0x00000000000000000000000000000000000000000000100000000000000000000000000000000000000002000000000000000000000000000000000000000000000000000000000000000028000000000000000000000000000000000000000000000000020000000000000000000800000000000000000000000010000000000000000000000000000000000000100000000000000000000000000000100000000000000000000000000000000000000000000000000000000000000000000000000002000000000000000000000000000000000000000000000000000020000000000040000000000000000000000000000000000000000000000000000000",
      "type": "0x2",
      "transactionHash": "0x5f539b42a2105515573efb033e7b1543d3d865dd6a6c81892320fe831343754c",
      "transactionIndex": "0x2f",
      "blockHash": "0x044c0a3b6e621aa5ec7b38d6e6c9d3e96ae4a77b05b1e5a5e325aec2bea56a31",
      "blockNumber": "0x90ae37",
      "gasUsed": "0xca7b",
      "effectiveGasPrice": "0x10c8f6",
      "from": "0x5ce6047a715b1919a58c549e6fbc1921b4d9287d",
      "to": "0x8a0c939571ef36363a5b4526a28ac59f623ebf97",
      "contractAddress": null
    }
  ],
  "libraries": [],
  "pending": [],
  "returns": {},
  "timestamp": 1761329268,
  "chain": 11155111,
  "commit": "3caefd0"
}