{
  "transactions": [
    {
      "hash": "0xbcf5ac45f41b381b0f8c13bbe4a758984ed72fd60a70279ff2103d67d0be3d7f",
      "transactionType": "CALL",
      "contractName": null,
      "contractAddress": "0xc22834581ebc8527d974f8a1c97e1bea4ef910bc",
      "function": "createProxyWithNonce(address,bytes,uint256)",
      "arguments": [
        "0xfb1bffC9d739B8D520DaF37dF666da4C687191EA",
        "0xb63e800d00000000000000000000000000000000000000000000000000000000000000e000000000000000000000000000000000000000000000000000000000000000010000000000000000000000000000000000000000000000000000000000000000000000000000000000000000000000000000000000000000000000000000012000000000000000000000000000000000000000000000000000000000000000000000000000000000000000000000000000000000000000000000000000000000000000000000000000000000000000000000000000000000000000000000000000000000000000000000000000000000000000000000000000000000000000010000000000000000000000005ce6047a715b1919a58c549e6fbc1921b4d9287d0000000000000000000000000000000000000000000000000000000000000000",
        "48653554754123367328158228194092113962438806105028440204593725910972607072654"
      ],
      "transaction": {
        "from": "0x5ce6047a715b1919a58c549e6fbc1921b4d9287d",
        "to": "0xc22834581ebc8527d974f8a1c97e1bea4ef910bc",
        "gas": "0x4fb8f",
        "value": "0x0",
        "input": "0x1688f0b9000000000000000000000000fb1bffc9d739b8d520daf37df666da4c687191ea00000000000000000000000000000000000000000000000000000000000000606b90efa577cfe9e1ee2b7353cb0b4ea1577c38c730a0a62ff07b70097af1898e0000000000000000000000000000000000000000000000000000000000000144b63e800d00000000000000000000000000000000000000000000000000000000000000e000000000000000000000000000000000000000000000000000000000000000010000000000000000000000000000000000000000000000000000000000000000000000000000000000000000000000000000000000000000000000000000012000000000000000000000000000000000000000000000000000000000000000000000000000000000000000000000000000000000000000000000000000000000000000000000000000000000000000000000000000000000000000000000000000000000000000000000000000000000000000000000000000000000000000010000000000000000000000005ce6047a715b1919a58c549e6fbc1921b4d9287d000000000000000000000000000000000000000000000000000000000000000000000000000000000000000000000000000000000000000000000000",
        "nonce": "0x1ae",
        "chainId": "0xaa36a7"
      },
      "additionalContracts": [
        {
          "transactionType": "CREATE2",
          "address": "0xf16bd86ac718886f0550689a574d4552dec0253e",
          "initCode": "0x608060405234801561001057600080fd5b506040516101e63803806101e68339818101604052602081101561003357600080fd5b8101908080519060200190929190505050600073ffffffffffffffffffffffffffffffffffffffff168173ffffffffffffffffffffffffffffffffffffffff1614156100ca576040517f08c379a00000000000000000000000000000000000000000000000000000000081526004018080602001828103825260228152602001806101c46022913960400191505060405180910390fd5b806000806101000a81548173ffffffffffffffffffffffffffffffffffffffff021916908373ffffffffffffffffffffffffffffffffffffffff1602179055505060ab806101196000396000f3fe608060405273ffffffffffffffffffffffffffffffffffffffff600054167fa619486e0000000000000000000000000000000000000000000000000000000060003514156050578060005260206000f35b3660008037600080366000845af43d6000803e60008114156070573d6000fd5b3d6000f3fea2646970667358221220d1429297349653a4918076d650332de1a1068c5f3e07c5c82360c277770b955264736f6c63430007060033496e76616c69642073696e676c65746f6e20616464726573732070726f7669646564000000000000000000000000fb1bffc9d739b8d520daf37df666da4c687191ea"
        }
      ],
      "isFixedGasLimit": false
    }
  ],
  "receipts": [
    {
      "status": "0x1",
      "cumulativeGasUsed": "0x70879b",
      "logs": [
        {
          "address": "0xf16bd86ac718886f0550689a574d4552dec0253e",
          "topics": [
            "0x141df868a6331af528e38c83b7aa03edc19be66e37ae67f9285bf4f8e3c6a1a8",
            "0x000000000000000000000000c22834581ebc8527d974f8a1c97e1bea4ef910bc"
          ],
          "data": "0x000000000000000000000000000000000000000000000000000000000000008000000000000000000000000000000000000000000000000000000000000000010000000000000000000000000000000000000000000000000000000000000000000000000000000000000000000000000000000000000000000000000000000000000000000000000000000000000000000000000000000000000000000000010000000000000000000000005ce6047a715b1919a58c549e6fbc1921b4d9287d",
          "blockHash": "0x2a1a9bf7eae0372d2c9dc39eff2a0840b75752fea4ca1729742eba539047794d",
          "blockNumber": "0x90acc1",
          "blockTimestamp": "0x68fbaeec",
          "transactionHash": "0xbcf5ac45f41b381b0f8c13bbe4a758984ed72fd60a70279ff2103d67d0be3d7f",
          "transactionIndex": "0x2e",
          "logIndex": "0x6c",
          "removed": false
        },
        {
          "address": "0xc22834581ebc8527d974f8a1c97e1bea4ef910bc",
          "topics": [
            "0x4f51faf6c4561ff95f067657e43439f0f856d97c04d9ec9070a6199ad418e235"
          ],
          "data": "0x000000000000000000000000f16bd86ac718886f0550689a574d4552dec0253e000000000000000000000000fb1bffc9d739b8d520daf37df666da4c687191ea",
          "blockHash": "0x2a1a9bf7eae0372d2c9dc39eff2a0840b75752fea4ca1729742eba539047794d",
          "blockNumber": "0x90acc1",
          "blockTimestamp": "0x68fbaeec",
          "transactionHash": "0xbcf5ac45f41b381b0f8c13bbe4a758984ed72fd60a70279ff2103d67d0be3d7f",
          "transactionIndex": "0x2e",
          "logIndex": "0x6d",
          "removed": false
        }
      ],
      "logsBloom": "0x00080000000000000000000000000000000000000000000000000000000000000000000000000040000000000000000000000000000000000000000000000000000010000000020000000000000000000010000000000008000000000000000000000000000000000500000000000000000000000000000000000000000000000000000000000000000000000000000000000000000000000000000000000000000000000000000000000400000200000000000000000000000000000000000000000000000002000000000000000000000000000000000000000000000000000000080000000000000000000000000020000000000008000000000000000001",
      "type": "0x2",
      "transactionHash": "0xbcf5ac45f41b381b0f8c13bbe4a758984ed72fd60a70279ff2103d67d0be3d7f",
      "transactionIndex": "0x2e",
      "blockHash": "0x2a1a9bf7eae0372d2c9dc39eff2a0840b75752fea4ca1729742eba539047794d",
      "blockNumber": "0x90acc1",
      "gasUsed": "0x39b7c",
      "effectiveGasPrice": "0xf4249",
      "from": "0x5ce6047a715b1919a58c549e6fbc1921b4d9287d",
      "to": "0xc22834581ebc8527d974f8a1c97e1bea4ef910bc",
      "contractAddress": null
    }
  ],
  "libraries": [],
  "pending": [],
  "returns": {},
  "timestamp": 1761324781,
  "chain": 11155111,
  "commit": "3caefd0"
}