{
  "transactions": [
    {
      "hash": "0x629478085a50ea03ff4c0e00a04c4b19e1fb9f11cc7fe0b21ea277d9e4a4af3a",
      "transactionType": "CALL",
      "contractName": null,
      "contractAddress": "0x14f2982d601c9458f93bd70b218933a6f8165e7b",
      "function": "createProxyWithNonce(address,bytes,uint256)",
      "arguments": [
        "0xEdd160fEBBD92E350D4D398fb636302fccd67C7e",
        "0xb63e800d00000000000000000000000000000000000000000000000000000000000000e000000000000000000000000000000000000000000000000000000000000000010000000000000000000000000000000000000000000000000000000000000000000000000000000000000000000000000000000000000000000000000000012000000000000000000000000000000000000000000000000000000000000000000000000000000000000000000000000000000000000000000000000000000000000000000000000000000000000000000000000000000000000000000000000000000000000000000000000000000000000000000000000000000000000000010000000000000000000000005ce6047a715b1919a58c549e6fbc1921b4d9287d0000000000000000000000000000000000000000000000000000000000000000",
        "31786534014819285551424158764741567636229526119961613238728129420301134277091"
      ],
      "transaction": {
        "from": "0x5ce6047a715b1919a58c549e6fbc1921b4d9287d",
        "to": "0x14f2982d601c9458f93bd70b218933a6f8165e7b",
        "gas": "0x50fc9",
        "value": "0x0",
        "input": "0x1688f0b9000000000000000000000000edd160febbd92e350d4d398fb636302fccd67c7e000000000000000000000000000000000000000000000000000000000000006046468a6ac49d5edaca078a9600660d0ebb3d601372f05efefc3df3522df529e30000000000000000000000000000000000000000000000000000000000000144b63e800d00000000000000000000000000000000000000000000000000000000000000e000000000000000000000000000000000000000000000000000000000000000010000000000000000000000000000000000000000000000000000000000000000000000000000000000000000000000000000000000000000000000000000012000000000000000000000000000000000000000000000000000000000000000000000000000000000000000000000000000000000000000000000000000000000000000000000000000000000000000000000000000000000000000000000000000000000000000000000000000000000000000000000000000000000000000010000000000000000000000005ce6047a715b1919a58c549e6fbc1921b4d9287d000000000000000000000000000000000000000000000000000000000000000000000000000000000000000000000000000000000000000000000000",
        "nonce": "0x1ad",
        "chainId": "0xaa36a7"
      },
      "additionalContracts": [
        {
          "transactionType": "CREATE2",
          "address": "0x76e11b9acb901dac9b7da19dfa69bd145167cf15",
          "initCode": "0x608060405234801561001057600080fd5b506040516101b63803806101b68339818101604052602081101561003357600080fd5b8101908080519060200190929190505050600073ffffffffffffffffffffffffffffffffffffffff168173ffffffffffffffffffffffffffffffffffffffff1614156100ca576040517f08c379a00000000000000000000000000000000000000000000000000000000081526004018080602001828103825260228152602001806101946022913960400191505060405180910390fd5b806000806101000a81548173ffffffffffffffffffffffffffffffffffffffff021916908373ffffffffffffffffffffffffffffffffffffffff16021790555050607b806101196000396000f3fe608060405260005463a619486e60003560e01c14156024578060601b606c5260206060f35b3660008037600080366000845af43d6000803e806040573d6000fd5b3d6000f3fea2646970667358221220e61834ebd2d8cd909d362bf67c47ef58fd665df38e6dd036ce65611101d072e964736f6c63430007060033496e76616c69642073696e676c65746f6e20616464726573732070726f7669646564000000000000000000000000edd160febbd92e350d4d398fb636302fccd67c7e"
        }
      ],
      "isFixedGasLimit": false
    }
  ],
  "receipts": [
    {
      "status": "0x1",
      "cumulativeGasUsed": "0x63c26e",
      "logs": [
        {
          "address": "0x76e11b9acb901dac9b7da19dfa69bd145167cf15",
          "topics": [
            "0x141df868a6331af528e38c83b7aa03edc19be66e37ae67f9285bf4f8e3c6a1a8",
            "0x00000000000000000000000014f2982d601c9458f93bd70b218933a6f8165e7b"
          ],
          "data": "0x000000000000000000000000000000000000000000000000000000000000008000000000000000000000000000000000000000000000000000000000000000010000000000000000000000000000000000000000000000000000000000000000000000000000000000000000000000000000000000000000000000000000000000000000000000000000000000000000000000000000000000000000000000010000000000000000000000005ce6047a715b1919a58c549e6fbc1921b4d9287d",
          "blockHash": "0xcecb3541f3cab948145eab54ec57e3fec7582f5c14fa0e643c3e5fed94f81283",
          "blockNumber": "0x90ac8c",
          "blockTimestamp": "0x68fbac70",
          "transactionHash": "0x629478085a50ea03ff4c0e00a04c4b19e1fb9f11cc7fe0b21ea277d9e4a4af3a",
          "transactionIndex": "0x35",
          "logIndex": "0x5d",
          "removed": false
        },
        {
          "address": "0x14f2982d601c9458f93bd70b218933a6f8165e7b",
          "topics": [
            "0x4f51faf6c4561ff95f067657e43439f0f856d97c04d9ec9070a6199ad418e235",
            "0x00000000000000000000000076e11b9acb901dac9b7da19dfa69bd145167cf15"
          ],
          "data": "0x000000000000000000000000edd160febbd92e350d4d398fb636302fccd67c7e",
          "blockHash": "0xcecb3541f3cab948145eab54ec57e3fec7582f5c14fa0e643c3e5fed94f81283",
          "blockNumber": "0x90ac8c",
          "blockTimestamp": "0x68fbac70",
          "transactionHash": "0x629478085a50ea03ff4c0e00a04c4b19e1fb9f11cc7fe0b21ea277d9e4a4af3a",
          "transactionIndex": "0x35",
          "logIndex": "0x5e",
          "removed": false
        }
      ],
      "logsBloom": "0x00000010000000000000000000000000000000000000000000000000000000000000000000000800000000000000000000000000000000000000000000000000000010000000000000200000000000000000020000000008000000000000000000000000000000000540000000000000000000080000000000000000000000000000000000000000000000000000000000000000000000000000000000000000000000000000020000200000000000000000000000000000080000100000000000000000000000000000000000000000000000000000000000000000000000200000080000000000000000000000000020000000000000000008000000000000",
      "type": "0x2",
      "transactionHash": "0x629478085a50ea03ff4c0e00a04c4b19e1fb9f11cc7fe0b21ea277d9e4a4af3a",
      "transactionIndex": "0x35",
      "blockHash": "0xcecb3541f3cab948145eab54ec57e3fec7582f5c14fa0e643c3e5fed94f81283",
      "blockNumber": "0x90ac8c",
      "gasUsed": "0x37602",
      "effectiveGasPrice": "0xf4249",
      "from": "0x5ce6047a715b1919a58c549e6fbc1921b4d9287d",
      "to": "0x14f2982d601c9458f93bd70b218933a6f8165e7b",
      "contractAddress": null
    }
  ],
  "libraries": [],
  "pending": [],
  "returns": {},
  "timestamp": 1761324144,
  "chain": 11155111,
  "commit": "3caefd0"
}