{
  "transactions": [
    {
      "hash": "0x134226bd3658fdf71614531cea683d796cbdd72ea12868b1becf1473e53cae07",
      "transactionType": "CALL",
      "contractName": null,
      "contractAddress": "0xf16bd86ac718886f0550689a574d4552dec0253e",
      "function": "execTransaction(address,uint256,bytes,uint8,uint256,uint256,uint256,address,address,bytes)",
      "arguments": [
        "0xF16bD86AC718886F0550689A574D4552dEC0253E",
        "0",
        "0x610b5925000000000000000000000000091e1c4c0c4e184d90117cb51436d4d661f138a3",
        "0",
        "0",
        "0",
        "0",
        "0x0000000000000000000000000000000000000000",
        "0x0000000000000000000000000000000000000000",
        "0x2b186ce097adabd31952a9c0d0993c32eab86e9a0e4d12d35e1d9b01e6df154d496aa55e7b704f3c42be138f1060e5492ccf6a1b88d20a07108dfd7656c1c1be1b"
      ],
      "transaction": {
        "from": "0x5ce6047a715b1919a58c549e6fbc1921b4d9287d",
        "to": "0xf16bd86ac718886f0550689a574d4552dec0253e",
        "gas": "0x25789",
        "value": "0x0",
        "input": "0x6a761202000000000000000000000000f16bd86ac718886f0550689a574d4552dec0253e0000000000000000000000000000000000000000000000000000000000000000000000000000000000000000000000000000000000000000000000000000014000000000000000000000000000000000000000000000000000000000000000000000000000000000000000000000000000000000000000000000000000000000000000000000000000000000000000000000000000000000000000000000000000000000000000000000000000000000000000000000000000000000000000000000000000000000000000000000000000000000000000000000000000000000000000000000000000000000000000000000000000000000000000000000000000000000000000000000000000000000000000000000000000000000000001a00000000000000000000000000000000000000000000000000000000000000024610b5925000000000000000000000000091e1c4c0c4e184d90117cb51436d4d661f138a30000000000000000000000000000000000000000000000000000000000000000000000000000000000000000000000000000000000000000000000412b186ce097adabd31952a9c0d0993c32eab86e9a0e4d12d35e1d9b01e6df154d496aa55e7b704f3c42be138f1060e5492ccf6a1b88d20a07108dfd7656c1c1be1b00000000000000000000000000000000000000000000000000000000000000",
        "nonce": "0x1af",
        "chainId": "0xaa36a7"
      },
      "additionalContracts": [],
      "isFixedGasLimit": false
    }
  ],
  "receipts": [
    {
      "status": "0x1",
      "cumulativeGasUsed": "0xb5ce43",
      "logs": [
        {
          "address": "0xf16bd86ac718886f0550689a574d4552dec0253e",
          "topics": [
            "0x66753cd2356569ee081232e3be8909b950e0a76c1f8460c3a5e3c2be32b11bed"
          ],
          "data": "0x000000000000000000000000f16bd86ac718886f0550689a574d4552dec0253e0000000000000000000000000000000000000000000000000000000000000000000000000000000000000000000000000000000000000000000000000000016000000000000000000000000000000000000000000000000000000000000000000000000000000000000000000000000000000000000000000000000000000000000000000000000000000000000000000000000000000000000000000000000000000000000000000000000000000000000000000000000000000000000000000000000000000000000000000000000000000000000000000000000000000000000000000000000000000000000000000000000000000000000000000000000000000000000000000000000000000000000000000000000000000000000001c000000000000000000000000000000000000000000000000000000000000002400000000000000000000000000000000000000000000000000000000000000024610b5925000000000000000000000000091e1c4c0c4e184d90117cb51436d4d661f138a30000000000000000000000000000000000000000000000000000000000000000000000000000000000000000000000000000000000000000000000412b186ce097adabd31952a9c0d0993c32eab86e9a0e4d12d35e1d9b01e6df154d496aa55e7b704f3c42be138f1060e5492ccf6a1b88d20a07108dfd7656c1c1be1b00000000000000000000000000000000000000000000000000000000000000000000000000000000000000000000000000000000000000000000000000006000000000000000000000000000000000000000000000000000000000000000000000000000000000000000005ce6047a715b1919a58c549e6fbc1921b4d9287d0000000000000000000000000000000000000000000000000000000000000001",
          "blockHash": "0x563d5e2a78a428227448b602d8c7f8eabc6d93c44760060d7f15cd14b74c5b66",
          "blockNumber": "0x90ad2a",
          "blockTimestamp": "0x68fbb3d8",
          "transactionHash": "0x134226bd3658fdf71614531cea683d796cbdd72ea12868b1becf1473e53cae07",
          "transactionIndex": "0x4a",
          "logIndex": "0x67",
          "removed": false
        },
        {
          "address": "0xf16bd86ac718886f0550689a574d4552dec0253e",
          "topics": [
            "0xecdf3a3effea5783a3c4c2140e677577666428d44ed9d474a0b3a4c9943f8440"
          ],
          "data": "0x000000000000000000000000091e1c4c0c4e184d90117cb51436d4d661f138a3",
          "blockHash": "0x563d5e2a78a428227448b602d8c7f8eabc6d93c44760060d7f15cd14b74c5b66",
          "blockNumber": "0x90ad2a",
          "blockTimestamp": "0x68fbb3d8",
          "transactionHash": "0x134226bd3658fdf71614531cea683d796cbdd72ea12868b1becf1473e53cae07",
          "transactionIndex": "0x4a",
          "logIndex": "0x68",
          "removed": false
        },
        {
          "address": "0xf16bd86ac718886f0550689a574d4552dec0253e",
          "topics": [
            "0x442e715f626346e8c54381002da614f62bee8d27386535b2521ec8540898556e"
          ],
          "data": "0x587be3dc8872454d0cceb5438345900fed3747b2586d9ebc49ad7983773639b60000000000000000000000000000000000000000000000000000000000000000",
          "blockHash": "0x563d5e2a78a428227448b602d8c7f8eabc6d93c44760060d7f15cd14b74c5b66",
          "blockNumber": "0x90ad2a",
          "blockTimestamp": "0x68fbb3d8",
          "transactionHash": "0x134226bd3658fdf71614531cea683d796cbdd72ea12868b1becf1473e53cae07",
          "transactionIndex": "0x4a",
          "logIndex": "0x69",
          "removed": false
        }
      ],
      "logsBloom": "0x00000000400000000000000000000000800000000000000000000000040000000000000000000000000000000000000000000000000000000000000000000000000000000000020000000000000000000000040000000000004000000000000000000000000000000000000000000000000000000000000000000000000000000000010000000000000000000000000000000000000000000000000000000000000000000400000000000400000204000000000000000000000000000000000000000000000000000000000000020000000000000000000000000000000000000000000000000000000000000000000000000000000000000000000000000000",
      "type": "0x2",
      "transactionHash": "0x134226bd3658fdf71614531cea683d796cbdd72ea12868b1becf1473e53cae07",
      "transactionIndex": "0x4a",
      "blockHash": "0x563d5e2a78a428227448b602d8c7f8eabc6d93c44760060d7f15cd14b74c5b66",
      "blockNumber": "0x90ad2a",
      "gasUsed": "0x199f1",
      "effectiveGasPrice": "0xf4249",
      "from": "0x5ce6047a715b1919a58c549e6fbc1921b4d9287d",
      "to": "0xf16bd86ac718886f0550689a574d4552dec0253e",
      "contractAddress": null
    }
  ],
  "libraries": [],
  "pending": [],
  "returns": {},
  "timestamp": 1761326040,
  "chain": 11155111,
  "commit": "3caefd0"
}